{
  "_format": "hh-sol-artifact-1",
  "contractName": "GFALMarketplace",
  "sourceName": "contracts/games/MarketPlace/GFALMarketplace.sol",
  "abi": [
    {
      "inputs": [
        {
          "internalType": "uint256",
          "name": "_royaltiesInBasisPoints",
          "type": "uint256"
        },
        {
          "internalType": "address",
          "name": "_g4alProxy",
          "type": "address"
        }
      ],
      "stateMutability": "nonpayable",
      "type": "constructor"
    },
    {
      "anonymous": false,
      "inputs": [
        {
          "indexed": false,
          "internalType": "address",
          "name": "collection",
          "type": "address"
        },
        {
          "indexed": false,
          "internalType": "uint256",
          "name": "tokenId",
          "type": "uint256"
        },
        {
          "indexed": false,
          "internalType": "uint256",
          "name": "amount",
          "type": "uint256"
        },
        {
          "indexed": false,
          "internalType": "uint256",
          "name": "price",
          "type": "uint256"
        },
        {
          "indexed": false,
          "internalType": "uint256",
          "name": "sellerRevenue",
          "type": "uint256"
        },
        {
          "indexed": false,
          "internalType": "uint256",
          "name": "royalties",
          "type": "uint256"
        },
        {
          "indexed": false,
          "internalType": "address",
          "name": "seller",
          "type": "address"
        },
        {
          "indexed": false,
          "internalType": "address",
          "name": "buyer",
          "type": "address"
        }
      ],
      "name": "BuyToken",
      "type": "event"
    },
    {
      "anonymous": false,
      "inputs": [
        {
          "indexed": false,
          "internalType": "bool",
          "name": "isActive",
          "type": "bool"
        }
      ],
      "name": "ContractStatusUpdated",
      "type": "event"
    },
    {
      "anonymous": false,
      "inputs": [
        {
          "indexed": false,
          "internalType": "address",
          "name": "collection",
          "type": "address"
        },
        {
          "indexed": false,
          "internalType": "uint256",
          "name": "tokenId",
          "type": "uint256"
        },
        {
          "indexed": false,
          "internalType": "address",
          "name": "seller",
          "type": "address"
        }
      ],
      "name": "RemoveToken",
      "type": "event"
    },
    {
      "anonymous": false,
      "inputs": [
        {
          "indexed": false,
          "internalType": "address",
          "name": "collection",
          "type": "address"
        },
        {
          "indexed": false,
          "internalType": "uint256",
          "name": "tokenId",
          "type": "uint256"
        },
        {
          "indexed": false,
          "internalType": "uint256",
          "name": "amount",
          "type": "uint256"
        },
        {
          "indexed": false,
          "internalType": "uint256",
          "name": "price",
          "type": "uint256"
        },
        {
          "indexed": false,
          "internalType": "bool",
          "name": "isDollar",
          "type": "bool"
        },
        {
          "indexed": false,
          "internalType": "address",
          "name": "seller",
          "type": "address"
        }
      ],
      "name": "SellToken",
      "type": "event"
    },
    {
      "inputs": [
        {
          "internalType": "address",
          "name": "contractAddress",
          "type": "address"
        },
        {
          "internalType": "uint256",
          "name": "tokenId",
          "type": "uint256"
        },
        {
          "internalType": "address",
          "name": "seller",
          "type": "address"
        }
      ],
      "name": "buyToken",
      "outputs": [],
      "stateMutability": "nonpayable",
      "type": "function"
    },
    {
      "inputs": [],
      "name": "g4alProxy",
      "outputs": [
        {
          "internalType": "contract G4ALProxy",
          "name": "",
          "type": "address"
        }
      ],
      "stateMutability": "view",
      "type": "function"
    },
    {
      "inputs": [
        {
          "internalType": "address",
          "name": "contractAddress",
          "type": "address"
        },
        {
          "internalType": "address",
          "name": "seller",
          "type": "address"
        },
        {
          "internalType": "uint256",
          "name": "start",
          "type": "uint256"
        },
        {
          "internalType": "uint256",
          "name": "end",
          "type": "uint256"
        }
      ],
      "name": "getOnSaleTokenIds",
      "outputs": [
        {
          "internalType": "uint256[]",
          "name": "tokenIds",
          "type": "uint256[]"
        },
        {
          "internalType": "address[]",
          "name": "sellers",
          "type": "address[]"
        },
        {
          "internalType": "uint256[]",
          "name": "prices",
          "type": "uint256[]"
        }
      ],
      "stateMutability": "view",
      "type": "function"
    },
    {
      "inputs": [],
      "name": "getSellersList",
      "outputs": [
        {
          "internalType": "address[]",
          "name": "",
          "type": "address[]"
        }
      ],
      "stateMutability": "view",
      "type": "function"
    },
    {
      "inputs": [],
      "name": "isActive",
      "outputs": [
        {
          "internalType": "bool",
          "name": "",
          "type": "bool"
        }
      ],
      "stateMutability": "view",
      "type": "function"
    },
    {
      "inputs": [
        {
          "internalType": "address",
          "name": "",
          "type": "address"
        }
      ],
      "name": "knownSellers",
      "outputs": [
        {
          "internalType": "bool",
          "name": "",
          "type": "bool"
        }
      ],
      "stateMutability": "view",
      "type": "function"
    },
    {
      "inputs": [
        {
          "internalType": "address",
          "name": "contractAddress",
          "type": "address"
        },
        {
          "internalType": "uint256",
          "name": "tokenId",
          "type": "uint256"
        }
      ],
      "name": "removeToken",
      "outputs": [],
      "stateMutability": "nonpayable",
      "type": "function"
    },
    {
      "inputs": [],
      "name": "royaltiesInBasisPoints",
      "outputs": [
        {
          "internalType": "uint256",
          "name": "",
          "type": "uint256"
        }
      ],
      "stateMutability": "view",
      "type": "function"
    },
    {
      "inputs": [
        {
          "internalType": "address",
          "name": "contractAddress",
          "type": "address"
        },
        {
          "internalType": "uint256",
          "name": "tokenId",
          "type": "uint256"
        },
        {
          "internalType": "uint256",
          "name": "amount",
          "type": "uint256"
        },
        {
          "internalType": "uint256",
          "name": "price",
          "type": "uint256"
        },
        {
          "internalType": "bool",
          "name": "isDollar",
          "type": "bool"
        }
      ],
      "name": "sellToken",
      "outputs": [],
      "stateMutability": "nonpayable",
      "type": "function"
    },
    {
      "inputs": [
        {
          "internalType": "uint256",
          "name": "",
          "type": "uint256"
        }
      ],
      "name": "sellersList",
      "outputs": [
        {
          "internalType": "address",
          "name": "",
          "type": "address"
        }
      ],
      "stateMutability": "view",
      "type": "function"
    },
    {
      "inputs": [
        {
          "internalType": "address",
          "name": "",
          "type": "address"
        },
        {
          "internalType": "uint256",
          "name": "",
          "type": "uint256"
        },
        {
          "internalType": "address",
          "name": "",
          "type": "address"
        }
      ],
      "name": "tokensForSale",
      "outputs": [
        {
          "internalType": "uint256",
          "name": "price",
          "type": "uint256"
        },
        {
          "internalType": "bool",
          "name": "isDollar",
          "type": "bool"
        },
        {
          "internalType": "bool",
          "name": "isForSale",
          "type": "bool"
        },
        {
          "internalType": "uint256",
          "name": "amount",
          "type": "uint256"
        }
      ],
      "stateMutability": "view",
      "type": "function"
    },
    {
      "inputs": [
        {
          "internalType": "address",
          "name": "_collectionAddress",
          "type": "address"
        },
        {
          "internalType": "enum GFALMarketplace.TokenStandard",
          "name": "_tokenStandard",
          "type": "uint8"
        },
        {
          "internalType": "bool",
          "name": "_allowed",
          "type": "bool"
        }
      ],
      "name": "updateCollection",
      "outputs": [],
      "stateMutability": "nonpayable",
      "type": "function"
    },
    {
      "inputs": [
        {
          "internalType": "bool",
          "name": "_isActive",
          "type": "bool"
        }
      ],
      "name": "updateContractStatus",
      "outputs": [],
      "stateMutability": "nonpayable",
      "type": "function"
    },
    {
      "inputs": [
        {
          "internalType": "uint256",
          "name": "_royaltiesInBasisPoints",
          "type": "uint256"
        }
      ],
      "name": "updateRoyaltiesInBasisPoints",
      "outputs": [],
      "stateMutability": "nonpayable",
      "type": "function"
    },
    {
      "inputs": [],
      "name": "volume",
      "outputs": [
        {
          "internalType": "uint256",
          "name": "",
          "type": "uint256"
        }
      ],
      "stateMutability": "view",
      "type": "function"
    },
    {
      "inputs": [
        {
          "internalType": "address",
          "name": "",
          "type": "address"
        }
      ],
      "name": "whitelistNFTs",
      "outputs": [
        {
          "internalType": "bool",
          "name": "allowed",
          "type": "bool"
        },
        {
          "internalType": "enum GFALMarketplace.TokenStandard",
          "name": "tokenStandard",
          "type": "uint8"
        }
      ],
      "stateMutability": "view",
      "type": "function"
    }
  ],
  "bytecode": "0x60806040523480156200001157600080fd5b5060405162003ef138038062003ef183398181016040528101906200003791906200014f565b60016000819055508160078190555080600160006101000a81548173ffffffffffffffffffffffffffffffffffffffff021916908373ffffffffffffffffffffffffffffffffffffffff1602179055506001600860006101000a81548160ff021916908315150217905550505062000196565b600080fd5b6000819050919050565b620000c481620000af565b8114620000d057600080fd5b50565b600081519050620000e481620000b9565b92915050565b600073ffffffffffffffffffffffffffffffffffffffff82169050919050565b60006200011782620000ea565b9050919050565b62000129816200010a565b81146200013557600080fd5b50565b60008151905062000149816200011e565b92915050565b60008060408385031215620001695762000168620000aa565b5b60006200017985828601620000d3565b92505060206200018c8582860162000138565b9150509250929050565b613d4b80620001a66000396000f3fe608060405234801561001057600080fd5b50600436106101005760003560e01c8063649e19341161009757806372f7eb991161006657806372f7eb99146102b1578063a7ef35fb146102cf578063c618a1e4146102eb578063c7d6a1371461030957610100565b8063649e193414610216578063655f79d214610248578063692bf4a8146102645780636e3e03a81461028057610100565b80632f228e9f116100d35780632f228e9f1461017957806354ca510014610195578063588b6938146101c55780635bafa3af146101e357610100565b806307c8ea8a1461010557806313baf1e6146101235780631c557fa21461013f57806322f3e2d41461015b575b600080fd5b61010d610339565b60405161011a919061284e565b60405180910390f35b61013d600480360381019061013891906128d7565b6103c7565b005b6101596004803603810190610154919061294f565b610738565b005b61016361088a565b604051610170919061298b565b60405180910390f35b610193600480360381019061018e91906129cb565b61089d565b005b6101af60048036038101906101aa9190612a1e565b610a5b565b6040516101bc919061298b565b60405180910390f35b6101cd610a7b565b6040516101da9190612a5a565b60405180910390f35b6101fd60048036038101906101f89190612a75565b610a81565b60405161020d9493929190612ac8565b60405180910390f35b610230600480360381019061022b9190612b0d565b610ae5565b60405161023f93929190612c32565b60405180910390f35b610262600480360381019061025d9190612c7e565b610f1c565b005b61027e60048036038101906102799190612a75565b611024565b005b61029a60048036038101906102959190612a1e565b6119ae565b6040516102a8929190612d22565b60405180910390f35b6102b96119ec565b6040516102c69190612daa565b60405180910390f35b6102e960048036038101906102e49190612dc5565b611a12565b005b6102f3612319565b6040516103009190612a5a565b60405180910390f35b610323600480360381019061031e9190612c7e565b61231f565b6040516103309190612e4f565b60405180910390f35b606060048054806020026020016040519081016040528092919081815260200182805480156103bd57602002820191906000526020600020905b8160009054906101000a900473ffffffffffffffffffffffffffffffffffffffff1673ffffffffffffffffffffffffffffffffffffffff1681526020019060010190808311610373575b5050505050905090565b600060018111156103db576103da612cab565b5b600260008473ffffffffffffffffffffffffffffffffffffffff1673ffffffffffffffffffffffffffffffffffffffff16815260200190815260200160002060000160019054906101000a900460ff16600181111561043d5761043c612cab565b5b0361052e573373ffffffffffffffffffffffffffffffffffffffff168273ffffffffffffffffffffffffffffffffffffffff16636352211e836040518263ffffffff1660e01b81526004016104929190612a5a565b602060405180830381865afa1580156104af573d6000803e3d6000fd5b505050506040513d601f19601f820116820180604052508101906104d39190612e7f565b73ffffffffffffffffffffffffffffffffffffffff1614610529576040517f08c379a000000000000000000000000000000000000000000000000000000000815260040161052090612f2f565b60405180910390fd5b6105ec565b60008273ffffffffffffffffffffffffffffffffffffffff1662fdd58e33846040518363ffffffff1660e01b815260040161056a929190612f4f565b602060405180830381865afa158015610587573d6000803e3d6000fd5b505050506040513d601f19601f820116820180604052508101906105ab9190612f8d565b036105eb576040517f08c379a00000000000000000000000000000000000000000000000000000000081526004016105e29061302c565b60405180910390fd5b5b6040518060800160405280600081526020016000151581526020016000151581526020016000815250600360008473ffffffffffffffffffffffffffffffffffffffff1673ffffffffffffffffffffffffffffffffffffffff168152602001908152602001600020600083815260200190815260200160002060003373ffffffffffffffffffffffffffffffffffffffff1673ffffffffffffffffffffffffffffffffffffffff1681526020019081526020016000206000820151816000015560208201518160010160006101000a81548160ff02191690831515021790555060408201518160010160016101000a81548160ff021916908315150217905550606082015181600201559050507fc3e81845cf9d9802fe8e058353ce034c229b670ce0fb04a08db41a1ba52a90a082823360405161072c9392919061304c565b60405180910390a15050565b600160009054906101000a900473ffffffffffffffffffffffffffffffffffffffff1673ffffffffffffffffffffffffffffffffffffffff16638da5cb5b6040518163ffffffff1660e01b8152600401602060405180830381865afa1580156107a5573d6000803e3d6000fd5b505050506040513d601f19601f820116820180604052508101906107c99190612e7f565b73ffffffffffffffffffffffffffffffffffffffff163373ffffffffffffffffffffffffffffffffffffffff1614610836576040517f08c379a000000000000000000000000000000000000000000000000000000000815260040161082d906130cf565b60405180910390fd5b80600860006101000a81548160ff0219169083151502179055507f89cb8aeac390e3fc9016dc87a4ed02fbbb63c5adafcbb03db9b6227a14fe589d8160405161087f919061298b565b60405180910390a150565b600860009054906101000a900460ff1681565b600160009054906101000a900473ffffffffffffffffffffffffffffffffffffffff1673ffffffffffffffffffffffffffffffffffffffff16638da5cb5b6040518163ffffffff1660e01b8152600401602060405180830381865afa15801561090a573d6000803e3d6000fd5b505050506040513d601f19601f8201168201806040525081019061092e9190612e7f565b73ffffffffffffffffffffffffffffffffffffffff163373ffffffffffffffffffffffffffffffffffffffff161461099b576040517f08c379a0000000000000000000000000000000000000000000000000000000008152600401610992906130cf565b60405180910390fd5b604051806040016040528082151581526020018360018111156109c1576109c0612cab565b5b815250600260008573ffffffffffffffffffffffffffffffffffffffff1673ffffffffffffffffffffffffffffffffffffffff16815260200190815260200160002060008201518160000160006101000a81548160ff02191690831515021790555060208201518160000160016101000a81548160ff02191690836001811115610a4e57610a4d612cab565b5b0217905550905050505050565b60056020528060005260406000206000915054906101000a900460ff1681565b60075481565b600360205282600052604060002060205281600052604060002060205280600052604060002060009250925050508060000154908060010160009054906101000a900460ff16908060010160019054906101000a900460ff16908060020154905084565b6060806060848411610b2c576040517f08c379a0000000000000000000000000000000000000000000000000000000008152600401610b239061313b565b60405180910390fd5b60008585610b3a919061318a565b67ffffffffffffffff811115610b5357610b526131be565b5b604051908082528060200260200182016040528015610b815781602001602082028036833780820191505090505b50905060008686610b92919061318a565b67ffffffffffffffff811115610bab57610baa6131be565b5b604051908082528060200260200182016040528015610bd95781602001602082028036833780820191505090505b50905060008787610bea919061318a565b67ffffffffffffffff811115610c0357610c026131be565b5b604051908082528060200260200182016040528015610c315781602001602082028036833780820191505090505b5090506000808990505b888111610f04576000600360008e73ffffffffffffffffffffffffffffffffffffffff1673ffffffffffffffffffffffffffffffffffffffff168152602001908152602001600020600083815260200190815260200160002060008d73ffffffffffffffffffffffffffffffffffffffff1673ffffffffffffffffffffffffffffffffffffffff168152602001908152602001600020604051806080016040529081600082015481526020016001820160009054906101000a900460ff161515151581526020016001820160019054906101000a900460ff161515151581526020016002820154815250509050806040015115610ef05781868481518110610d4657610d456131ed565b5b6020026020010181815250508b858481518110610d6657610d656131ed565b5b602002602001019073ffffffffffffffffffffffffffffffffffffffff16908173ffffffffffffffffffffffffffffffffffffffff16815250508060200151610db3578060000151610ec2565b600160009054906101000a900473ffffffffffffffffffffffffffffffffffffffff1673ffffffffffffffffffffffffffffffffffffffff16636c84dd816040518163ffffffff1660e01b8152600401602060405180830381865afa158015610e20573d6000803e3d6000fd5b505050506040513d601f19601f82011682018060405250810190610e449190612e7f565b73ffffffffffffffffffffffffffffffffffffffff16636e5b6b2882600001516040518263ffffffff1660e01b8152600401610e809190612a5a565b602060405180830381865afa158015610e9d573d6000803e3d6000fd5b505050506040513d601f19601f82011682018060405250810190610ec19190612f8d565b5b848481518110610ed557610ed46131ed565b5b6020026020010181815250508280610eec9061321c565b9350505b508080610efc9061321c565b915050610c3b565b50838383965096509650505050509450945094915050565b600160009054906101000a900473ffffffffffffffffffffffffffffffffffffffff1673ffffffffffffffffffffffffffffffffffffffff16638da5cb5b6040518163ffffffff1660e01b8152600401602060405180830381865afa158015610f89573d6000803e3d6000fd5b505050506040513d601f19601f82011682018060405250810190610fad9190612e7f565b73ffffffffffffffffffffffffffffffffffffffff163373ffffffffffffffffffffffffffffffffffffffff161461101a576040517f08c379a0000000000000000000000000000000000000000000000000000000008152600401611011906130cf565b60405180910390fd5b8060078190555050565b61102c61235e565b600860009054906101000a900460ff1661107b576040517f08c379a0000000000000000000000000000000000000000000000000000000008152600401611072906132b0565b60405180910390fd5b600260008473ffffffffffffffffffffffffffffffffffffffff1673ffffffffffffffffffffffffffffffffffffffff16815260200190815260200160002060000160009054906101000a900460ff1661110a576040517f08c379a00000000000000000000000000000000000000000000000000000000081526004016111019061331c565b60405180910390fd5b6000600360008573ffffffffffffffffffffffffffffffffffffffff1673ffffffffffffffffffffffffffffffffffffffff168152602001908152602001600020600084815260200190815260200160002060008373ffffffffffffffffffffffffffffffffffffffff1673ffffffffffffffffffffffffffffffffffffffff168152602001908152602001600020604051806080016040529081600082015481526020016001820160009054906101000a900460ff161515151581526020016001820160019054906101000a900460ff1615151515815260200160028201548152505090508060400151611234576040517f08c379a000000000000000000000000000000000000000000000000000000000815260040161122b90613388565b60405180910390fd5b600060011515826020015115151461125057816000015161135f565b600160009054906101000a900473ffffffffffffffffffffffffffffffffffffffff1673ffffffffffffffffffffffffffffffffffffffff16636c84dd816040518163ffffffff1660e01b8152600401602060405180830381865afa1580156112bd573d6000803e3d6000fd5b505050506040513d601f19601f820116820180604052508101906112e19190612e7f565b73ffffffffffffffffffffffffffffffffffffffff16636e5b6b2883600001516040518263ffffffff1660e01b815260040161131d9190612a5a565b602060405180830381865afa15801561133a573d6000803e3d6000fd5b505050506040513d601f19601f8201168201806040525081019061135e9190612f8d565b5b905060008061136d836123ad565b9150915082600160009054906101000a900473ffffffffffffffffffffffffffffffffffffffff1673ffffffffffffffffffffffffffffffffffffffff1663ade3e2d16040518163ffffffff1660e01b8152600401602060405180830381865afa1580156113df573d6000803e3d6000fd5b505050506040513d601f19601f820116820180604052508101906114039190612e7f565b73ffffffffffffffffffffffffffffffffffffffff1663dd62ed3e33306040518363ffffffff1660e01b815260040161143d9291906133a8565b602060405180830381865afa15801561145a573d6000803e3d6000fd5b505050506040513d601f19601f8201168201806040525081019061147e9190612f8d565b10156114bf576040517f08c379a00000000000000000000000000000000000000000000000000000000081526004016114b690613443565b60405180910390fd5b600060018111156114d3576114d2612cab565b5b600260008973ffffffffffffffffffffffffffffffffffffffff1673ffffffffffffffffffffffffffffffffffffffff16815260200190815260200160002060000160019054906101000a900460ff16600181111561153557611534612cab565b5b036115ae578673ffffffffffffffffffffffffffffffffffffffff166342842e0e8633896040518463ffffffff1660e01b815260040161157793929190613463565b600060405180830381600087803b15801561159157600080fd5b505af11580156115a5573d6000803e3d6000fd5b50505050611624565b8673ffffffffffffffffffffffffffffffffffffffff1663f242432a86338988606001516040518563ffffffff1660e01b81526004016115f194939291906134d1565b600060405180830381600087803b15801561160b57600080fd5b505af115801561161f573d6000803e3d6000fd5b505050505b6116e1338684600160009054906101000a900473ffffffffffffffffffffffffffffffffffffffff1673ffffffffffffffffffffffffffffffffffffffff1663ade3e2d16040518163ffffffff1660e01b8152600401602060405180830381865afa158015611697573d6000803e3d6000fd5b505050506040513d601f19601f820116820180604052508101906116bb9190612e7f565b73ffffffffffffffffffffffffffffffffffffffff166123f5909392919063ffffffff16565b61182e33600160009054906101000a900473ffffffffffffffffffffffffffffffffffffffff1673ffffffffffffffffffffffffffffffffffffffff16631b4338446040518163ffffffff1660e01b8152600401602060405180830381865afa158015611752573d6000803e3d6000fd5b505050506040513d601f19601f820116820180604052508101906117769190612e7f565b83600160009054906101000a900473ffffffffffffffffffffffffffffffffffffffff1673ffffffffffffffffffffffffffffffffffffffff1663ade3e2d16040518163ffffffff1660e01b8152600401602060405180830381865afa1580156117e4573d6000803e3d6000fd5b505050506040513d601f19601f820116820180604052508101906118089190612e7f565b73ffffffffffffffffffffffffffffffffffffffff166123f5909392919063ffffffff16565b82600660008282546118409190613529565b925050819055506040518060800160405280600081526020016000151581526020016000151581526020016000815250600360008973ffffffffffffffffffffffffffffffffffffffff1673ffffffffffffffffffffffffffffffffffffffff168152602001908152602001600020600088815260200190815260200160002060008773ffffffffffffffffffffffffffffffffffffffff1673ffffffffffffffffffffffffffffffffffffffff1681526020019081526020016000206000820151816000015560208201518160010160006101000a81548160ff02191690831515021790555060408201518160010160016101000a81548160ff021916908315150217905550606082015181600201559050507fb10c847932aa588bf2dc0c501fabdede536adde6630864fe7b266fbcb2ad6498878786606001518686868b3360405161199598979695949392919061355d565b60405180910390a1505050506119a961247e565b505050565b60026020528060005260406000206000915090508060000160009054906101000a900460ff16908060000160019054906101000a900460ff16905082565b600160009054906101000a900473ffffffffffffffffffffffffffffffffffffffff1681565b8433856000600260008573ffffffffffffffffffffffffffffffffffffffff1673ffffffffffffffffffffffffffffffffffffffff1681526020019081526020016000206040518060400160405290816000820160009054906101000a900460ff161515151581526020016000820160019054906101000a900460ff166001811115611aa157611aa0612cab565b5b6001811115611ab357611ab2612cab565b5b815250509050600115158160000151151514611b04576040517f08c379a0000000000000000000000000000000000000000000000000000000008152600401611afb9061364d565b60405180910390fd5b60006001811115611b1857611b17612cab565b5b81602001516001811115611b2f57611b2e612cab565b5b03611c20578273ffffffffffffffffffffffffffffffffffffffff168473ffffffffffffffffffffffffffffffffffffffff16636352211e846040518263ffffffff1660e01b8152600401611b849190612a5a565b602060405180830381865afa158015611ba1573d6000803e3d6000fd5b505050506040513d601f19601f82011682018060405250810190611bc59190612e7f565b73ffffffffffffffffffffffffffffffffffffffff1614611c1b576040517f08c379a0000000000000000000000000000000000000000000000000000000008152600401611c1290612f2f565b60405180910390fd5b611cde565b60008473ffffffffffffffffffffffffffffffffffffffff1662fdd58e33856040518363ffffffff1660e01b8152600401611c5c929190612f4f565b602060405180830381865afa158015611c79573d6000803e3d6000fd5b505050506040513d601f19601f82011682018060405250810190611c9d9190612f8d565b03611cdd576040517f08c379a0000000000000000000000000000000000000000000000000000000008152600401611cd49061302c565b60405180910390fd5b5b60008711611d21576040517f08c379a0000000000000000000000000000000000000000000000000000000008152600401611d18906136b9565b60405180910390fd5b600860009054906101000a900460ff16611d70576040517f08c379a0000000000000000000000000000000000000000000000000000000008152600401611d67906132b0565b60405180910390fd5b600260008a73ffffffffffffffffffffffffffffffffffffffff1673ffffffffffffffffffffffffffffffffffffffff16815260200190815260200160002060000160009054906101000a900460ff16611dff576040517f08c379a0000000000000000000000000000000000000000000000000000000008152600401611df69061331c565b60405180910390fd5b60008603611e42576040517f08c379a0000000000000000000000000000000000000000000000000000000008152600401611e3990613725565b60405180910390fd5b60001515600560003373ffffffffffffffffffffffffffffffffffffffff1673ffffffffffffffffffffffffffffffffffffffff16815260200190815260200160002060009054906101000a900460ff16151503611f56576001600560003373ffffffffffffffffffffffffffffffffffffffff1673ffffffffffffffffffffffffffffffffffffffff16815260200190815260200160002060006101000a81548160ff0219169083151502179055506004339080600181540180825580915050600190039060005260206000200160009091909190916101000a81548173ffffffffffffffffffffffffffffffffffffffff021916908373ffffffffffffffffffffffffffffffffffffffff1602179055505b60006001811115611f6a57611f69612cab565b5b600260008b73ffffffffffffffffffffffffffffffffffffffff1673ffffffffffffffffffffffffffffffffffffffff16815260200190815260200160002060000160019054906101000a900460ff166001811115611fcc57611fcb612cab565b5b036121005760018714612014576040517f08c379a000000000000000000000000000000000000000000000000000000000815260040161200b90613791565b60405180910390fd5b3073ffffffffffffffffffffffffffffffffffffffff168973ffffffffffffffffffffffffffffffffffffffff1663081812fc8a6040518263ffffffff1660e01b81526004016120649190612a5a565b602060405180830381865afa158015612081573d6000803e3d6000fd5b505050506040513d601f19601f820116820180604052508101906120a59190612e7f565b73ffffffffffffffffffffffffffffffffffffffff16146120fb576040517f08c379a00000000000000000000000000000000000000000000000000000000081526004016120f290613823565b60405180910390fd5b6121c3565b600115158973ffffffffffffffffffffffffffffffffffffffff1663e985e9c533306040518363ffffffff1660e01b815260040161213f9291906133a8565b602060405180830381865afa15801561215c573d6000803e3d6000fd5b505050506040513d601f19601f820116820180604052508101906121809190613858565b1515146121c2576040517f08c379a00000000000000000000000000000000000000000000000000000000081526004016121b9906138f7565b60405180910390fd5b5b6040518060800160405280878152602001861515815260200160011515815260200188815250600360008b73ffffffffffffffffffffffffffffffffffffffff1673ffffffffffffffffffffffffffffffffffffffff16815260200190815260200160002060008a815260200190815260200160002060003373ffffffffffffffffffffffffffffffffffffffff1673ffffffffffffffffffffffffffffffffffffffff1681526020019081526020016000206000820151816000015560208201518160010160006101000a81548160ff02191690831515021790555060408201518160010160016101000a81548160ff021916908315150217905550606082015181600201559050507fd3f91e96755bfa11450dae0a3d05885e0f63555e67f8ad9c491731dcd47b368e89898989893360405161230696959493929190613917565b60405180910390a1505050505050505050565b60065481565b6004818154811061232f57600080fd5b906000526020600020016000915054906101000a900473ffffffffffffffffffffffffffffffffffffffff1681565b6002600054036123a3576040517f08c379a000000000000000000000000000000000000000000000000000000000815260040161239a906139c4565b60405180910390fd5b6002600081905550565b6000806123d96127106123cb6007548661248890919063ffffffff16565b61249e90919063ffffffff16565b90506123ee81846124b490919063ffffffff16565b9150915091565b612478846323b872dd60e01b85858560405160240161241693929190613463565b604051602081830303815290604052907bffffffffffffffffffffffffffffffffffffffffffffffffffffffff19166020820180517bffffffffffffffffffffffffffffffffffffffffffffffffffffffff83818316178352505050506124ca565b50505050565b6001600081905550565b6000818361249691906139e4565b905092915050565b600081836124ac9190613a55565b905092915050565b600081836124c2919061318a565b905092915050565b600061252c826040518060400160405280602081526020017f5361666545524332303a206c6f772d6c6576656c2063616c6c206661696c65648152508573ffffffffffffffffffffffffffffffffffffffff166125919092919063ffffffff16565b905060008151111561258c578080602001905181019061254c9190613858565b61258b576040517f08c379a000000000000000000000000000000000000000000000000000000000815260040161258290613af8565b60405180910390fd5b5b505050565b60606125a084846000856125a9565b90509392505050565b6060824710156125ee576040517f08c379a00000000000000000000000000000000000000000000000000000000081526004016125e590613b8a565b60405180910390fd5b6000808673ffffffffffffffffffffffffffffffffffffffff1685876040516126179190613c1b565b60006040518083038185875af1925050503d8060008114612654576040519150601f19603f3d011682016040523d82523d6000602084013e612659565b606091505b509150915061266a87838387612676565b92505050949350505050565b606083156126d85760008351036126d057612690856126eb565b6126cf576040517f08c379a00000000000000000000000000000000000000000000000000000000081526004016126c690613c7e565b60405180910390fd5b5b8290506126e3565b6126e2838361270e565b5b949350505050565b6000808273ffffffffffffffffffffffffffffffffffffffff163b119050919050565b6000825111156127215781518083602001fd5b806040517f08c379a00000000000000000000000000000000000000000000000000000000081526004016127559190613cf3565b60405180910390fd5b600081519050919050565b600082825260208201905092915050565b6000819050602082019050919050565b600073ffffffffffffffffffffffffffffffffffffffff82169050919050565b60006127b58261278a565b9050919050565b6127c5816127aa565b82525050565b60006127d783836127bc565b60208301905092915050565b6000602082019050919050565b60006127fb8261275e565b6128058185612769565b93506128108361277a565b8060005b8381101561284157815161282888826127cb565b9750612833836127e3565b925050600181019050612814565b5085935050505092915050565b6000602082019050818103600083015261286881846127f0565b905092915050565b600080fd5b61287e816127aa565b811461288957600080fd5b50565b60008135905061289b81612875565b92915050565b6000819050919050565b6128b4816128a1565b81146128bf57600080fd5b50565b6000813590506128d1816128ab565b92915050565b600080604083850312156128ee576128ed612870565b5b60006128fc8582860161288c565b925050602061290d858286016128c2565b9150509250929050565b60008115159050919050565b61292c81612917565b811461293757600080fd5b50565b60008135905061294981612923565b92915050565b60006020828403121561296557612964612870565b5b60006129738482850161293a565b91505092915050565b61298581612917565b82525050565b60006020820190506129a0600083018461297c565b92915050565b600281106129b357600080fd5b50565b6000813590506129c5816129a6565b92915050565b6000806000606084860312156129e4576129e3612870565b5b60006129f28682870161288c565b9350506020612a03868287016129b6565b9250506040612a148682870161293a565b9150509250925092565b600060208284031215612a3457612a33612870565b5b6000612a428482850161288c565b91505092915050565b612a54816128a1565b82525050565b6000602082019050612a6f6000830184612a4b565b92915050565b600080600060608486031215612a8e57612a8d612870565b5b6000612a9c8682870161288c565b9350506020612aad868287016128c2565b9250506040612abe8682870161288c565b9150509250925092565b6000608082019050612add6000830187612a4b565b612aea602083018661297c565b612af7604083018561297c565b612b046060830184612a4b565b95945050505050565b60008060008060808587031215612b2757612b26612870565b5b6000612b358782880161288c565b9450506020612b468782880161288c565b9350506040612b57878288016128c2565b9250506060612b68878288016128c2565b91505092959194509250565b600081519050919050565b600082825260208201905092915050565b6000819050602082019050919050565b612ba9816128a1565b82525050565b6000612bbb8383612ba0565b60208301905092915050565b6000602082019050919050565b6000612bdf82612b74565b612be98185612b7f565b9350612bf483612b90565b8060005b83811015612c25578151612c0c8882612baf565b9750612c1783612bc7565b925050600181019050612bf8565b5085935050505092915050565b60006060820190508181036000830152612c4c8186612bd4565b90508181036020830152612c6081856127f0565b90508181036040830152612c748184612bd4565b9050949350505050565b600060208284031215612c9457612c93612870565b5b6000612ca2848285016128c2565b91505092915050565b7f4e487b7100000000000000000000000000000000000000000000000000000000600052602160045260246000fd5b60028110612ceb57612cea612cab565b5b50565b6000819050612cfc82612cda565b919050565b6000612d0c82612cee565b9050919050565b612d1c81612d01565b82525050565b6000604082019050612d37600083018561297c565b612d446020830184612d13565b9392505050565b6000819050919050565b6000612d70612d6b612d668461278a565b612d4b565b61278a565b9050919050565b6000612d8282612d55565b9050919050565b6000612d9482612d77565b9050919050565b612da481612d89565b82525050565b6000602082019050612dbf6000830184612d9b565b92915050565b600080600080600060a08688031215612de157612de0612870565b5b6000612def8882890161288c565b9550506020612e00888289016128c2565b9450506040612e11888289016128c2565b9350506060612e22888289016128c2565b9250506080612e338882890161293a565b9150509295509295909350565b612e49816127aa565b82525050565b6000602082019050612e646000830184612e40565b92915050565b600081519050612e7981612875565b92915050565b600060208284031215612e9557612e94612870565b5b6000612ea384828501612e6a565b91505092915050565b600082825260208201905092915050565b7f546f6b656e20646f6573206e6f742062656c6f6e6720746f2075736572206f7260008201527f206e6f74206578697374696e67203732312e0000000000000000000000000000602082015250565b6000612f19603283612eac565b9150612f2482612ebd565b604082019050919050565b60006020820190508181036000830152612f4881612f0c565b9050919050565b6000604082019050612f646000830185612e40565b612f716020830184612a4b565b9392505050565b600081519050612f87816128ab565b92915050565b600060208284031215612fa357612fa2612870565b5b6000612fb184828501612f78565b91505092915050565b7f546f6b656e20646f6573206e6f742062656c6f6e6720746f2075736572206f7260008201527f206e6f74206578697374696e6720313135352e00000000000000000000000000602082015250565b6000613016603383612eac565b915061302182612fba565b604082019050919050565b6000602082019050818103600083015261304581613009565b9050919050565b60006060820190506130616000830186612e40565b61306e6020830185612a4b565b61307b6040830184612e40565b949350505050565b7f4e6f74206f776e65720000000000000000000000000000000000000000000000600082015250565b60006130b9600983612eac565b91506130c482613083565b602082019050919050565b600060208201905081810360008301526130e8816130ac565b9050919050565b7f456e64206d75737420626520686967686572207468616e207374617274000000600082015250565b6000613125601d83612eac565b9150613130826130ef565b602082019050919050565b6000602082019050818103600083015261315481613118565b9050919050565b7f4e487b7100000000000000000000000000000000000000000000000000000000600052601160045260246000fd5b6000613195826128a1565b91506131a0836128a1565b92508282039050818111156131b8576131b761315b565b5b92915050565b7f4e487b7100000000000000000000000000000000000000000000000000000000600052604160045260246000fd5b7f4e487b7100000000000000000000000000000000000000000000000000000000600052603260045260246000fd5b6000613227826128a1565b91507fffffffffffffffffffffffffffffffffffffffffffffffffffffffffffffffff82036132595761325861315b565b5b600182019050919050565b7f534320556e646572206d61696e74656e616e6365000000000000000000000000600082015250565b600061329a601483612eac565b91506132a582613264565b602082019050919050565b600060208201905081810360008301526132c98161328d565b9050919050565b7f4e6f7420616c6c6f776564204e465420636f6c6c656374696f6e000000000000600082015250565b6000613306601a83612eac565b9150613311826132d0565b602082019050919050565b60006020820190508181036000830152613335816132f9565b9050919050565b7f546f6b656e206973206e6f7420666f722073616c652e00000000000000000000600082015250565b6000613372601683612eac565b915061337d8261333c565b602082019050919050565b600060208201905081810360008301526133a181613365565b9050919050565b60006040820190506133bd6000830185612e40565b6133ca6020830184612e40565b9392505050565b7f4746414c20686173206e6f74206265656e20617070726f76656420666f72207360008201527f70656e64696e672e000000000000000000000000000000000000000000000000602082015250565b600061342d602883612eac565b9150613438826133d1565b604082019050919050565b6000602082019050818103600083015261345c81613420565b9050919050565b60006060820190506134786000830186612e40565b6134856020830185612e40565b6134926040830184612a4b565b949350505050565b600082825260208201905092915050565b50565b60006134bb60008361349a565b91506134c6826134ab565b600082019050919050565b600060a0820190506134e66000830187612e40565b6134f36020830186612e40565b6135006040830185612a4b565b61350d6060830184612a4b565b818103608083015261351e816134ae565b905095945050505050565b6000613534826128a1565b915061353f836128a1565b92508282019050808211156135575761355661315b565b5b92915050565b600061010082019050613573600083018b612e40565b613580602083018a612a4b565b61358d6040830189612a4b565b61359a6060830188612a4b565b6135a76080830187612a4b565b6135b460a0830186612a4b565b6135c160c0830185612e40565b6135ce60e0830184612e40565b9998505050505050505050565b7f596f752063616e2073656c6c206f6e6c7920746f6b656e732061626f7574207760008201527f686974656c697374656420636f6c6c656374696f6e732e000000000000000000602082015250565b6000613637603783612eac565b9150613642826135db565b604082019050919050565b600060208201905081810360008301526136668161362a565b9050919050565b7f416d6f756e742063616e6e6f7420626520300000000000000000000000000000600082015250565b60006136a3601283612eac565b91506136ae8261366d565b602082019050919050565b600060208201905081810360008301526136d281613696565b9050919050565b7f43616e6e6f7420707574207a65726f2061732061207072696365000000000000600082015250565b600061370f601a83612eac565b915061371a826136d9565b602082019050919050565b6000602082019050818103600083015261373e81613702565b9050919050565b7f416d6f756e74206e6565647320746f2062652031000000000000000000000000600082015250565b600061377b601483612eac565b915061378682613745565b602082019050919050565b600060208201905081810360008301526137aa8161376e565b9050919050565b7f4e465420686173206e6f74206265656e20617070726f76656420666f7220737060008201527f656e64696e67203732312e000000000000000000000000000000000000000000602082015250565b600061380d602b83612eac565b9150613818826137b1565b604082019050919050565b6000602082019050818103600083015261383c81613800565b9050919050565b60008151905061385281612923565b92915050565b60006020828403121561386e5761386d612870565b5b600061387c84828501613843565b91505092915050565b7f4e465420686173206e6f74206265656e20617070726f76656420666f7220737060008201527f656e64696e6720313135352e0000000000000000000000000000000000000000602082015250565b60006138e1602c83612eac565b91506138ec82613885565b604082019050919050565b60006020820190508181036000830152613910816138d4565b9050919050565b600060c08201905061392c6000830189612e40565b6139396020830188612a4b565b6139466040830187612a4b565b6139536060830186612a4b565b613960608083018561297c565b61396d60a0830184612e40565b979650505050505050565b7f5265656e7472616e637947756172643a207265656e7472616e742063616c6c00600082015250565b60006139ae601f83612eac565b91506139b982613978565b602082019050919050565b600060208201905081810360008301526139dd816139a1565b9050919050565b60006139ef826128a1565b91506139fa836128a1565b9250828202613a08816128a1565b91508282048414831517613a1f57613a1e61315b565b5b5092915050565b7f4e487b7100000000000000000000000000000000000000000000000000000000600052601260045260246000fd5b6000613a60826128a1565b9150613a6b836128a1565b925082613a7b57613a7a613a26565b5b828204905092915050565b7f5361666545524332303a204552433230206f7065726174696f6e20646964206e60008201527f6f74207375636365656400000000000000000000000000000000000000000000602082015250565b6000613ae2602a83612eac565b9150613aed82613a86565b604082019050919050565b60006020820190508181036000830152613b1181613ad5565b9050919050565b7f416464726573733a20696e73756666696369656e742062616c616e636520666f60008201527f722063616c6c0000000000000000000000000000000000000000000000000000602082015250565b6000613b74602683612eac565b9150613b7f82613b18565b604082019050919050565b60006020820190508181036000830152613ba381613b67565b9050919050565b600081519050919050565b600081905092915050565b60005b83811015613bde578082015181840152602081019050613bc3565b60008484015250505050565b6000613bf582613baa565b613bff8185613bb5565b9350613c0f818560208601613bc0565b80840191505092915050565b6000613c278284613bea565b915081905092915050565b7f416464726573733a2063616c6c20746f206e6f6e2d636f6e7472616374000000600082015250565b6000613c68601d83612eac565b9150613c7382613c32565b602082019050919050565b60006020820190508181036000830152613c9781613c5b565b9050919050565b600081519050919050565b6000601f19601f8301169050919050565b6000613cc582613c9e565b613ccf8185612eac565b9350613cdf818560208601613bc0565b613ce881613ca9565b840191505092915050565b60006020820190508181036000830152613d0d8184613cba565b90509291505056fea2646970667358221220d6929126b6ec397f04bd3b082f27e51ff38c42e7995157da91076bd09684c7e864736f6c63430008130033",
  "linkReferences": {},
  "deployedLinkReferences": {}
}